S02000003037622D4164635F52617756616C75655F566F6C746167652E737265634F
S11300000C942A000C943F000C943F000C943F0085
S11300100C943F000C943F000C943F000C943F0060
S11300200C943F000C943F000C943F000C943F0050
S11300300C943F000C943F000C943F000C943F0040
S11300400C943F000C943F000C943F000C943F0030
S11300500C943F0011241FBECFE5D8E0DEBFCDBF16
S113006010E0A0E6B0E0E8EEFAE002C005900D92E0
S1130070A838B107D9F70E94F2020C9472050C94C7
S1130080000081E886B917B8089587B98AE090E03E
S11300900E945500369A349BFECF349A84E690E051
S11300A00E94550084B195B10895009731F025E080
S11300B02A95F1F700000197F8CF0895CF92DF92C7
S11300C0EF92FF926B017C01DC01CB0180569940D9
S11300D0A109B109813A984BA140B10598F4A8EF60
S11300E0BFEFA70196010E9453057C5D8B409F4F93
S11300F0E4E0220F331F441F551FEA95D1F70E94F5
S11301002E0502C027E630E029B930BDFF90EF90FC
S1130110DF90CF90089528E12AB926E820BD1BB8C6
S11301200C945E005D9BFECF8CB90895AF92BF9294
S1130130CF92DF92EF92FF920F931F93CF93DF93AF
S11301401F92CDB7DEB76B017C01AA24A394B12C16
S11301504423E9F08FEF840F850102C0000F111FC3
S11301608A95E2F7012E000C220B330B0C211D2182
S11301702E213F2181E0012B022B032B09F480E087
S1130180805D49830E94920049814150E1CF0F90E4
S1130190DF91CF911F910F91FF90EF90DF90CF905F
S11301A0BF90AF900895CF93DF93EC01899188239A
S11301B019F00E949200FACFDF91CF9108954F92E7
S11301C05F926F927F92BF92CF92DF92EF92FF92F3
S11301D00F931F93CF93DF93CDB7DEB72A970FB654
S11301E0F894DEBF0FBECDBFB82ECB01BA01022FEB
S11301F022E0B21216C0402F2A960FB6F894DEBF42
S11302000FBECDBFDF91CF911F910F91FF90EF9063
S1130210DF90CF90BF907F906F905F904F900C9441
S11302209600611571058105910549F0FE0131962D
S11302306F017F014B2C512C612C712C1EC010E0DE
S11302401017A1F11A3091F180E30E9492001F5F10
S1130250F7CF6115710581059105A1F0162FA30152
S113026092010E942E05CA01B901B29E10191124EF
S1130270F7011083FFEFEF1AFF0A1E2D1C19101748
S113028040F30FC00B3068F4F7011082F3CFFE0186
S1130290E10FF11D80818A3038F0895C0E94920060
S11302A011501111F4CF02C0805DF8CF2A960FB619
S11302B0F894DEBF0FBECDBFDF91CF911F910F9198
S11302C0FF90EF90DF90CF90BF907F906F905F9002
S11302D04F9008958F929F92AF92BF92CF92DF92E8
S11302E0EF92FF926B017C010E9404044B015C01BC
S11302F02FEFAB01BC018AE00E94DF008EE20E9476
S11303009200C501B4010E9433049B01AC01C701F2
S1130310B6010E94250320E034E244E759E40E9438
S1130320C1040E940404AB01BC012FEF8AE0FF90DA
S1130330EF90DF90CF90BF90AF909F908F900C94F0
S1130340DF00CF92DF92EF92FF920F931F93CF9330
S1130350DF9300D000D01F92CDB7DEB7FE017096B8
S1130360C190D1908F01F6018081882309F42CC1BA
S1130370853209F00EC176018FEFE81AF80AF6010A
S1130380818190ED980F9A3008F0B7C020E090ED8D
S1130390980F9A3058F4FAE02F9F900D1124292FCA
S11303A08FEFE81AF80AF7018081F1CF883509F454
S11303B0A8C070F4843409F450C018F48234D9F419
S11303C0BDC0833509F4DAC0853509F47DC0C6C0E3
S11303D0863609F4C5C040F4833681F0843621F1B1
S11303E0823609F0D9C09DC0853709F459C08837D1
S11303F009F479C0C1C0833408F4E0C06801F2E0B4
S1130400CF0ED11CF80180810E949200C0C08935B2
S113041008F1863609F4A4C008F03FC0833671F3AE
S1130420843609F07BC02FEF6801F2E0CF0ED11CB7
S1130430F8010081118117FF08C011950195110978
S11304408DE22D830E9492002D81A801110F660B6D
S1130450770B43C0843471F52FEF6801F4E0CF0EBD
S1130460D11CF801408151816281738177FF35C0CD
S113047070956095509541955F4F6F4F7F4F8DE21A
S11304802D8349835A836B837C830E9492007C81F1
S11304906B815A8149812D8120C0853701F52FEF69
S11304A06801F2E0CF0ED11CF8014081518160E077
S11304B070E013C0853408F474C0833509F45EC059
S11304C0853509F04BC02FEF6801F4E0CF0ED11C45
S11304D0F80140815181628173818AE01CC08837B0
S11304E009F04AC02FEF6801F2E0CF0ED11CF801E9
S11304F04081518160E070E00DC0883509F087CFFC
S11305002FEF6801F4E0CF0ED11CF8014081518136
S11305106281738180E10E94DF0039C08236E1F597
S11305202FEF6801F2E0CF0ED11CF80160817181D8
S11305302F3F09F420E180E090E00CC06801F4E072
S1130540CF0ED11CF80160817181828193812F3F8C
S113055009F420E2422F0E94960019C08634E1F487
S11305606801F4E0CF0ED11CF801608171818281B1
S113057093810E946A010BC0833771F46801F2E031
S1130580CF0ED11CF801808191810E94D300860195
S113059003C00E94920076016701FFEFCF1ADF0AC1
S11305A0E2CE823409F027CF6801F4E0CF0ED11CEB
S11305B0F8016081718182819381CBCF853261F7AB
S11305C085E20E949200E8CF0F900F900F900F9059
S11305D00F90DF91CF911F910F91FF90EF90DF90DB
S11305E0CF9008950E94410060E875E280E090E0B9
S11305F00E948B0000E610E080E00E944500EC01C0
S1130600BC01990F880B990B0E94350420E030E05F
S113061040EA50E40E94C10420E030EC4FE754E487
S11306200E9492039F938F937F936F93DF93CF9353
S11306301F930F930E94A1018DB79EB708960FB622
S1130640F8949EBF0FBE8DBFD7CF5058BB27AA27A3
S11306500E943D030C9487040E94790438F00E94A0
S1130660800420F039F49F3F19F426F40C947604A6
S11306700EF4E095E7FB0C947004E92F0E949804B3
S113068058F3BA17620773078407950720F079F4C3
S1130690A6F50C94BA040EF4E0950B2EBA2FA02DF7
S11306A00B01B90190010C01CA01A0011124FF271B
S11306B0591B99F0593F50F4503E68F11A16F04016
S11306C0A22F232F342F4427585FF3CF4695379515
S11306D02795A795F0405395C9F77EF41F16BA0BDA
S11306E0620B730B840BBAF09150A1F0FF0FBB1F88
S11306F0661F771F881FC2F70EC0BA0F621F731FD1
S1130700841F48F4879577956795B795F7959E3F2D
S113071008F0B0CF9395880F08F09927EE0F9795BE
S1130720879508950E94A6030C9487040E94800470
S113073058F00E94790440F029F45F3F29F00C94AA
S1130740700451110C94BB040C9476040E94980418
S113075068F39923B1F3552391F3951B550BBB27EC
S1130760AA2762177307840738F09F5F5F4F220F31
S1130770331F441FAA1FA9F335D00E2E3AF0E0E828
S113078032D091505040E695001CCAF72BD0FE2F72
S113079029D0660F771F881FBB1F26173707480706
S11307A0AB07B0E809F0BB0B802DBF01FF279358BE
S11307B05F4F3AF09E3F510578F00C9470040C940E
S11307C0BB045F3FE4F3983ED4F386957795679531
S11307D0B795F7959F5FC9F7880F911D96958795F3
S11307E097F90895E1E0660F771F881FBB1F621712
S11307F073078407BA0720F0621B730B840BBA0BD0
S1130800EE1F88F7E09508950E94A00488F09F5792
S113081098F0B92F9927B751B0F0E1F0660F771F20
S1130820881F991F1AF0BA95C9F714C0B13091F016
S11308300E94BA04B1E008950C94BA04672F782F8B
S11308408827B85F39F0B93FCCF3869577956795DB
S1130850B395D9F73EF490958095709561957F4F47
S11308608F4F9F4F0895E89409C097FB3EF49095ED
S11308708095709561957F4F8F4F9F4F9923A9F075
S1130880F92F96E9BB279395F69587957795679504
S1130890B795F111F8CFFAF4BB0F11F460FF1BC048
S11308A06F5F7F4F8F4F9F4F16C0882311F096E9DB
S11308B011C0772321F09EE8872F762F05C0662389
S11308C071F096E8862F70E060E02AF09A95660F42
S11308D0771F881FDAF7880F9695879597F90895FB
S11308E097F99F6780E870E060E008959FEF80ECDF
S11308F0089500240A941616170618060906089582
S113090000240A9412161306140605060895092EE7
S11309100394000C11F4882352F0BB0F40F4BF2B56
S113092011F460FF04C06F5F7F4F8F4F9F4F089596
S113093057FD9058440F551F59F05F3F71F047958C
S1130940880F97FB991F61F09F3F79F08795089571
S1130950121613061406551FF2CF4695F1DF08C090
S1130960161617061806991FF1CF869571056105AD
S113097008940895E894BB2766277727CB0197F955
S113098008950E94D4040C9487040E94790438F0DA
S11309900E94800420F0952311F00C9470040C94B0
S11309A0760411240C94BB040E94980470F3959F60
S11309B0C1F3950F50E0551F629FF001729FBB2752
S11309C0F00DB11D639FAA27F00DB11DAA1F649FEE
S11309D06627B00DA11D661F829F2227B00DA11DA1
S11309E0621F739FB00DA11D621F839FA00D611D27
S11309F0221F749F3327A00D611D231F849F600D48
S1130A00211D822F762F6A2F11249F5750409AF070
S1130A10F1F088234AF0EE0FFF1FBB1F661F771FFC
S1130A20881F91505040A9F79E3F510580F00C94C7
S1130A3070040C94BB045F3FE4F3983ED4F38695B2
S1130A4077956795B795F795E7959F5FC1F7FE2B67
S1130A50880F911D9695879597F90895A1E21A2E0E
S1130A60AA1BBB1BFD010DC0AA1FBB1FEE1FFF1F4E
S1130A70A217B307E407F50720F0A21BB30BE40B9E
S1130A80F50B661F771F881F991F1A9469F76095E5
S1130A907095809590959B01AC01BD01CF0108959F
S1130AA0B7FF0C9458050E945805821B930B0895B8
S1130AB00E946305A59F900DB49F900DA49F800D87
S1130AC0911D11240895A29FB001B39FC001A39F5B
S1130AD0700D811D1124911DB29F700D811D112473
S10B0AE0911D0895F894FFCF65
S1130AE8414443302056616C75653A253464204589
S1130AF871756976616C656E7420566F6C74616784
S10B0B08653A25660A0D0000A0
S9030000FC
