S00E0000426C696E6B792E73726563AD
S11300000C942A000C9434000C9434000C943400A6
S11300100C9434000C9434000C9434000C9434008C
S11300200C9434000C9434000C9434000C9434007C
S11300300C9434000C9434000C9434000C9434006C
S11300400C9434000C9434000C9434000C9434005C
S11300500C94340011241FBECFE5D8E0DEBFCDBF21
S11300600E9436000C944D000C94000080E281BB89
S113007082BB2FEF33ED90E3215030409040E1F705
S113008000C0000012BA2FEF33ED90E3215030404E
S11100909040E1F700C00000EBCFF894FFCFE2
S9030000FC
