:100000000C94EE010C940B020C940B020C940B025A
:100010000C940B020C940B020C940B020C940B022C
:100020000C940B020C940B020C940B020C940B021C
:100030000C940B020C940B020C940B020C940B020C
:100040000C940B020C940B020C940B020C940B02FC
:100050000C940B02FFFFFFFFFF00FFFFFFFFFFFFFE
:1000600000FFFFFFFFFFFF00FFFFFFFFFFFF00FF9D
:10007000FFFFFFFFFF00FFFFFFFFFFFF00FFFFFF8E
:10008000FFFFFF00FFFFFFFFFFFF00FFFFFFFFFF7E
:10009000FF00FFFFFFFFFFFF00FFFFFFFFFFFF006D
:1000A000FFFFFFFFFFFF00FFFFFFFFFFFF00FFFF5E
:1000B000FFFFFFFF00FFFFFFFFFFFF00FFFFFFFF4E
:1000C000FFFF00FFFFFFFFFFFF00FFFFFFFFFFFF3E
:1000D00000FFFFFFFFFFFF00FFFFFFFFFFFF00FF2D
:1000E000FFFFFFFFFF00FFFFFFFFFFFF00FFFFFF1E
:1000F000FFFFFF00FFFFFFFFFFFF00FFFFFFFFFF0E
:10010000FF00FFFFFFFFFFFF00FFFFFFFFFFFF00FC
:10011000FFFFFFFFFFFF00FFFFFFFFFFFF00FFFFED
:10012000FFFFFFFF00FFFFFFFFFFFF00FFFFFFFFDD
:10013000FFFF00FF0000000000FFFF00004F000075
:1001400000FF000700070000FF147F147F1400FF6A
:10015000242A7F2A1200FF231308646200FF364915
:1001600055222000FF000503000000FF001C224173
:100170000000FF0041221C0000FF14083E0814008C
:10018000FF08083E080800FF503000000000FF088C
:100190000808080800FF006060000000FF20100849
:1001A000040200FF3E5149453E00FF40427F40406F
:1001B00000FF426151494600FF2141454B3100FF9C
:1001C0001814127F1000FF274545453900FF3C4AAF
:1001D00049493000FF017109050300FF36494949CB
:1001E0003600FF064949291E00FF00363600000090
:1001F000FF005636000000FF081422410000FF14E3
:100200001414141400FF004122140800FF020151CD
:10021000090600FF3E415D551E00FF7E1111117E53
:1002200000FF7F4949493600FF3E4141412200FF1E
:100230007F4141221C00FF7F4949494100FF7F095E
:1002400009090100FF3E4149497A00FF7F0808087B
:100250007F00FF00417F410000FF2040413F01003F
:10026000FF7F0814224100FF7F4040404000FF7F95
:10027000020C027F00FF7F0408107F00FF3E414117
:10028000413E00FF7F0909090600FF3E4151215E02
:1002900000FF7F0919294600FF264949493200FF1E
:1002A00001017F010100FF3F4040403F00FF1F2050
:1002B00040201F00FF3F4038403F00FF63140814F8
:1002C0006300FF070870080700FF615149454300BC
:1002D000FF007F41410000FF020408102000FF00E2
:1002E00041417F0000FF040201020400FF40404042
:1002F000404000FF000003050000FF2054545478E4
:1003000000FF7F4444443800FF384444444400FF25
:10031000384444447F00FF385454541800FF040408
:100320007E050500FF085454543C00FF7F08040478
:100330007800FF00447D4000FFFF2040443D00FF67
:10034000FF7F10284400FFFF417F4000FFFFFF7C3C
:10035000047C047800FF7C0804047800FF384444DF
:10036000443800FF7C1414140800FF081414147C93
:1003700000FF7C08040400FFFF485454542400FF8D
:1003800004043F444400FF3C4040207C00FF1C200C
:1003900040201C00FF3C4030403C00FF4428102817
:1003A0004400FF0C5050503C00FF4464544C440047
:1003B000FF083641410000FF000077000000FF0009
:1003C0004141360800FF08082A1C0800FF081C2AC3
:1003D000080800FFFFFFFFFFFF00FF0011241FBE02
:1003E000CFE5D8E0DEBFCDBF10E0A0E6B0E0E0E9A9
:1003F000FEE002C005900D92AE38B107D9F720E0BB
:10040000AEE8B0E001C01D92A239B207E1F70E9448
:1004100070050C9446070C940000AB9AAC980895B4
:10042000AC9AAB980895D798A898A99AAA988AE008
:100430008A95F1F700C0AA9A8AE08A95F1F700C080
:10044000CF99F4CFD79A0895CF93DF931F92CDB76A
:10045000DEB789830E94130289818BBBA898A99873
:10046000AA9A8AE08A95F1F700C0AA980F90DF91C6
:10047000CF910895CF93DF931F92CDB7DEB78983D5
:100480000E94130290919100898189278BBBA89AC1
:10049000A998AA9A8AE08A95F1F700C0AA980F90C5
:1004A000DF91CF910895CF93C82F811103C00E948F
:1004B0000D0202C00E941002C0938E0080E480935F
:1004C000900080918F000E94240280919000CF9133
:1004D0000C942402883030F4885480938F0080E09C
:1004E0000C94530208951F93CF93DF9310919100C2
:1004F00010929100C0E08C2F0E946A02D0E080E050
:100500000E943A02DF5FD03831F0D034C1F781E089
:100510000E945302F4CFCF5FC83069F71093910067
:1005200088EB80938F0080E0DF91CF911F910C9436
:1005300053028FEF84BB8ABB0E940D028FE30E949F
:1005400024020E9410028FE30E9424028FE39CE9A0
:100550000197F1F700C000000E940D0280EC0E949C
:1005600024020E94100280EC0E9424020C94730268
:1005700080918F008F5F803C08F088EB80938F0024
:1005800080E00C945302CF93DF93C82F80918E00AC
:10059000813021F4809190008C3748F4CA3039F0D2
:1005A00087E0C89FE0011124CC5ADF4F18C00E9499
:1005B000B802CA30C9F0F4CF80919000803819F4A5
:1005C00081E00E945302FE01849121968F3F61F0E9
:1005D0000E943A02809190008F5F809390008091FA
:1005E0008E008111F0CFE8CFDF91CF910895CF93A6
:1005F000DF93EC018991882319F00E94C302FACF9E
:10060000DF91CF9108958F929F92AF92BF92CF9238
:10061000DF92EF92FF920F931F93CF93DF93CDB7AB
:10062000DEB72A970FB6F894DEBF0FBECDBF042FFA
:100630009E012F5F3F4F790161157105810591057D
:1006400039F069012AE0822E912CA12CB12C19C01D
:10065000F90110E01017F9F01A30E9F011921F5F5C
:10066000F9CF611571058105910581F0A50194010E
:100670000E942407F6016083B901CA01FFEFCF1A77
:10068000DF0A1C2D1E19101760F305C00B3018F47B
:10069000F6011082F3CF112349F0FE01E10FF11DA5
:1006A0008081805D0E94C3021150F5CF2A960FB65B
:1006B000F894DEBF0FBECDBFDF91CF911F910F9198
:1006C000FF90EF90DF90CF90BF90AF909F908F9072
:1006D00008951F93CF93DF93CDB7DEB72A970FB658
:1006E000F894DEBF0FBECDBFDE011196FD0161158E
:1006F000710581059105C1F410E0141741F11A301C
:1007000031F111921F5FF9CF6115710581059105D6
:1007100081F0262F2F70208324E09695879577957A
:1007200067952A95D1F731961E2F1A1B141760F37F
:100730000EC04B3060F41082F6CFFE01E10FF11DC8
:1007400080818A3038F0895C0E94C30211501111F7
:10075000F4CF02C0805DF8CF2A960FB6F894DEBFC2
:100760000FBECDBFDF91CF911F910895AF92BF9281
:10077000CF92DF92EF92FF920F931F93CF93DF936D
:100780001F92CDB7DEB76B017C01AA24A394B12CD4
:100790004423E9F08FEF840F850102C0000F111F81
:1007A0008A95E2F7012E000C220B330B0C211D2140
:1007B0002E213F2181E0012B022B032B09F480E045
:1007C000805D49830E94C30249814150E1CF0F906F
:1007D000DF91CF911F910F91FF90EF90DF90CF901D
:1007E000BF90AF9008958F929F92AF92BF92CF9299
:1007F000DF92EF92FF926B017C010E94FA054B01A0
:100800005C014FEF0E9403038EE20E94C302C50108
:10081000B4010E9429069B01AC01C701B6010E94E8
:100820008D0520E034E244E759E40E94B7060E94B7
:10083000FA054FEFFF90EF90DF90CF90BF90AF9011
:100840009F908F900C9403038F929F92AF92BF92D0
:10085000CF92DF92EF92FF920F931F93CF93DF938C
:100860001F92CDB7DEB7FE017096C190D1908F0177
:10087000F6018081882309F425C1853209F007C17A
:1008800076018FEFE81AF80AF601818190ED980F52
:100890009A3008F0B2C040E090ED980F9A3058F4CA
:1008A000FAE04F9F900D1124492F8FEFE81AF80AB4
:1008B000F7018081F1CF883509F4A3C070F4843446
:1008C00009F44FC018F48234D9F4B7C0833509F461
:1008D000D3C0853509F477C0BFC0863609F4BEC0E1
:1008E00040F4833681F0843619F1823609F0D2C0A3
:1008F00097C0853709F453C0883709F474C0BAC06B
:10090000833408F4D9C06801F2E0CF0ED11CF8019D
:1009100080810E94C302B9C0893500F1863609F48E
:100920009DC0D0F5833679F3843609F076C04FEF59
:100930006801F2E0CF0ED11CF8010081118117FF90
:1009400008C01195019511098DE249830E94C302E7
:100950004981B801110F880B990B3EC0843449F5C9
:100960004FEF6801F4E0CF0ED11CF8018080918038
:10097000A280B380B7FE0DC0B094A09490948094F0
:10098000811C911CA11CB11C8DE249830E94C302F1
:100990004981C501B40120C0853709F54FEF6801D1
:1009A000F2E0CF0ED11CF8016081718180E090E00F
:1009B00013C0853408F473C0833509F45DC08535F0
:1009C00009F04AC04FEF6801F4E0CF0ED11CF801E6
:1009D00060817181828193810E94030356C08837B0
:1009E00009F048C04FEF6801F2E0CF0ED11CF801CA
:1009F0006081718180E090E00DC0883509F08CCF76
:100A00004FEF6801F4E0CF0ED11CF80160817181D5
:100A1000828193810E94690338C08236D9F54FEFF5
:100A20006801F2E0CF0ED11CF801608171814F3F67
:100A300009F440E180E090E00CC06801F4E0CF0EE2
:100A4000D11CF80160817181828193814F3F09F44B
:100A500040E10E94B60319C08634E1F46801F4E075
:100A6000CF0ED11CF80160817181828193810E9437
:100A7000F3030BC0833771F46801F2E0CF0ED11C91
:100A8000F801808191810E94F702860103C00E94D3
:100A9000C30276016701FFEFCF1ADF0AE9CE823485
:100AA00009F02ECF6801F4E0CF0ED11CF80160816F
:100AB000718182819381CCCF853261F785E20E947A
:100AC000C302E8CF0F90DF91CF911F910F91FF905C
:100AD000EF90DF90CF90BF90AF909F908F90089550
:100AE0000E94990280E690E09F938F930E942404D5
:100AF00084E00E946A028DE690E09F938F930E94AB
:100B0000240487E00E946A0287E790E00E94F702CF
:100B10000F900F900F900F90FFCF5058BB27AA2730
:100B20000E94A5050C947D060E946F0638F00E9475
:100B3000760620F039F49F3F19F426F40C946C06E5
:100B40000EF4E095E7FB0C946606E92F0E948E06F2
:100B500058F3BA17620773078407950720F079F4F2
:100B6000A6F50C94B0060EF4E0950B2EBA2FA02D2E
:100B70000B01B90190010C01CA01A0011124FF274A
:100B8000591B99F0593F50F4503E68F11A16F04045
:100B9000A22F232F342F4427585FF3CF4695379544
:100BA0002795A795F0405395C9F77EF41F16BA0B09
:100BB000620B730B840BBAF09150A1F0FF0FBB1FB7
:100BC000661F771F881FC2F70EC0BA0F621F731F00
:100BD000841F48F4879577956795B795F7959E3F5D
:100BE00008F0B0CF9395880F08F09927EE0F9795EE
:100BF000879508950E94960688F09F5798F0B92F20
:100C00009927B751B0F0E1F0660F771F881F991F41
:100C10001AF0BA95C9F714C0B13091F00E94B0062D
:100C2000B1E008950C94B006672F782F8827B85F3D
:100C300039F0B93FCCF3869577956795B395D9F799
:100C40003EF490958095709561957F4F8F4F9F4FA3
:100C50000895E89409C097FB3EF4909580957095AF
:100C600061957F4F8F4F9F4F9923A9F0F92F96E9F8
:100C7000BB279395F695879577956795B795F1116D
:100C8000F8CFFAF4BB0F11F460FF1BC06F5F7F4F0A
:100C90008F4F9F4F16C0882311F096E911C077231C
:100CA00021F09EE8872F762F05C0662371F096E825
:100CB000862F70E060E02AF09A95660F771F881FF4
:100CC000DAF7880F9695879597F9089597F99F67B2
:100CD00080E870E060E008959FEF80EC08950024C4
:100CE0000A941616170618060906089500240A9491
:100CF00012161306140605060895092E0394000C17
:100D000011F4882352F0BB0F40F4BF2B11F460FFA5
:100D100004C06F5F7F4F8F4F9F4F089557FD9058CE
:100D2000440F551F59F05F3F71F04795880F97FBAF
:100D3000991F61F09F3F79F0879508951216130669
:100D40001406551FF2CF4695F1DF08C01616170698
:100D50001806991FF1CF86957105610508940895CD
:100D6000E894BB2766277727CB0197F908950E945F
:100D7000CA060C947D060E946F0638F00E94760623
:100D800020F0952311F00C9466060C946C06112447
:100D90000C94B1060E948E0670F3959FC1F3950FD7
:100DA00050E0551F629FF001729FBB27F00DB11DEF
:100DB000639FAA27F00DB11DAA1F649F6627B00D7F
:100DC000A11D661F829F2227B00DA11D621F739F68
:100DD000B00DA11D621F839FA00D611D221F749F76
:100DE0003327A00D611D231F849F600D211D822FBD
:100DF000762F6A2F11249F5750409AF0F1F08823E4
:100E00004AF0EE0FFF1FBB1F661F771F881F915010
:100E10005040A9F79E3F510580F00C9466060C9453
:100E2000B1065F3FE4F3983ED4F3869577956795D6
:100E3000B795F795E7959F5FC1F7FE2B880F911D3A
:100E40009695879597F90895A1E21A2EAA1BBB1BC8
:100E5000FD010DC0AA1FBB1FEE1FFF1FA217B30786
:100E6000E407F50720F0A21BB30BE40BF50B661F9C
:100E7000771F881F991F1A9469F760957095809560
:100E800090959B01AC01BD01CF010895F894FFCF6F
:100E900048656C6C6F20576F726C6421002A265E67
:100EA00025242340217E0057656C6C20746869738B
:0E0EB0002069732074686520656E642100005F
:00000001FF
