S00F0000537465707065722E7372656332
S11300000C942A000C9434000C9434000C943400A6
S11300100C9434000C9434000C9434000C9434008C
S11300200C9434000C9434000C9434000C9434007C
S11300300C9434000C9434000C9434000C9434006C
S11300400C9434000C9434000C9434000C9434005C
S11300500C94340011241FBECFE5D8E0DEBFCDBF21
S11300600E944A000C947F000C940000009731F029
S113007025E02A95F1F700000197F8CF089500973D
S113008041F0EFE9FFE03197F1F700C0000001977C
S1130090F6CF089581B3806E81BB9598969A04E05B
S11300A010E0C2E3D0E0979A8CEB92E00E94360015
S11300B097988CEB92E00E9436002197A1F788EE86
S11300C093E00E943F000150110959F7969804E00B
S11300D010E0C2E3D0E0979A8CEB92E00E943600E5
S11300E097988CEB92E00E9436002197A1F788EE56
S11300F093E00E943F000150110959F7CFCFF894C3
S1050100FFCF2B
S9030000FC
