:100000000C942A000C943F000C943F000C943F0089
:100010000C943F000C943F000C943F000C943F0064
:100020000C943F000C943F000C943F000C943F0054
:100030000C943F000C943F000C943F000C943F0044
:100040000C943F000C943F000C943F000C943F0034
:100050000C943F0011241FBECFE5D8E0DEBFCDBF1A
:1000600010E0A0E6B0E0EEEDF0E002C005900D92E9
:10007000A037B107D9F70E9441000C946D000C9491
:100080000000CF93DF93CDB7DEB760970FB6F8943B
:10009000DEBF0FBECDBF80E1E0E6F0E0DE011196ED
:1000A00001900D928A95E1F78FEF87BB81E081BBCC
:1000B000CE01419621E0FE01319622BB319138BB41
:1000C0003FEF45EA5EE0315040405040E1F700C06C
:0E00D0000000E817F90789F7EECFF894FFCF8C
:1000DE00C0F9A4B0999282F880908883C6A1868ECA
:00000001FF
